{
  "contractName": "Voucher",
  "abi": [
    {
      "inputs": [],
      "stateMutability": "payable",
      "type": "constructor",
      "payable": true
    },
    {
      "anonymous": false,
      "inputs": [
        {
          "indexed": false,
          "internalType": "uint256",
          "name": "_value",
          "type": "uint256"
        },
        {
          "indexed": false,
          "internalType": "address",
          "name": "_creator",
          "type": "address"
        },
        {
          "indexed": false,
          "internalType": "string",
          "name": "_voucher",
          "type": "string"
        },
        {
          "indexed": false,
          "internalType": "uint256",
          "name": "_date",
          "type": "uint256"
        }
      ],
      "name": "VoucherCreated",
      "type": "event"
    },
    {
      "anonymous": false,
      "inputs": [
        {
          "indexed": false,
          "internalType": "string",
          "name": "_voucher",
          "type": "string"
        },
        {
          "indexed": false,
          "internalType": "uint256",
          "name": "_value",
          "type": "uint256"
        },
        {
          "indexed": false,
          "internalType": "address",
          "name": "_reedeemer",
          "type": "address"
        },
        {
          "indexed": false,
          "internalType": "uint256",
          "name": "_date",
          "type": "uint256"
        }
      ],
      "name": "VoucherReedeemed",
      "type": "event"
    },
    {
      "inputs": [
        {
          "internalType": "address",
          "name": "",
          "type": "address"
        },
        {
          "internalType": "string",
          "name": "",
          "type": "string"
        }
      ],
      "name": "coupons",
      "outputs": [
        {
          "internalType": "uint256",
          "name": "",
          "type": "uint256"
        }
      ],
      "stateMutability": "view",
      "type": "function",
      "constant": true
    },
    {
      "inputs": [],
      "name": "creator",
      "outputs": [
        {
          "internalType": "address",
          "name": "",
          "type": "address"
        }
      ],
      "stateMutability": "view",
      "type": "function",
      "constant": true
    },
    {
      "inputs": [],
      "name": "reedeemer",
      "outputs": [
        {
          "internalType": "address payable",
          "name": "",
          "type": "address"
        }
      ],
      "stateMutability": "view",
      "type": "function",
      "constant": true
    },
    {
      "inputs": [],
      "name": "value",
      "outputs": [
        {
          "internalType": "uint256",
          "name": "",
          "type": "uint256"
        }
      ],
      "stateMutability": "view",
      "type": "function",
      "constant": true
    },
    {
      "inputs": [
        {
          "internalType": "string",
          "name": "",
          "type": "string"
        }
      ],
      "name": "voucherPrice",
      "outputs": [
        {
          "internalType": "uint256",
          "name": "",
          "type": "uint256"
        }
      ],
      "stateMutability": "view",
      "type": "function",
      "constant": true
    },
    {
      "inputs": [
        {
          "internalType": "uint256",
          "name": "_value",
          "type": "uint256"
        },
        {
          "internalType": "string",
          "name": "_voucher",
          "type": "string"
        }
      ],
      "name": "createVoucher",
      "outputs": [],
      "stateMutability": "nonpayable",
      "type": "function"
    },
    {
      "inputs": [],
      "name": "balanceOf",
      "outputs": [
        {
          "internalType": "uint256",
          "name": "",
          "type": "uint256"
        }
      ],
      "stateMutability": "view",
      "type": "function",
      "constant": true
    },
    {
      "inputs": [
        {
          "internalType": "string",
          "name": "_voucher",
          "type": "string"
        },
        {
          "internalType": "address payable",
          "name": "_reedeemer",
          "type": "address"
        }
      ],
      "name": "reedemVoucher",
      "outputs": [],
      "stateMutability": "nonpayable",
      "type": "function"
    }
  ],
  "bytecode": "0x6080604052610a48806100136000396000f3fe608060405234801561001057600080fd5b50600436106100885760003560e01c80635d83a9701161005b5780635d83a97014610115578063722713f714610133578063a178fb2c14610151578063a9c9e0e21461018157610088565b806302d05d3f1461008d5780631b04badd146100ab5780633fa4f245146100db57806349003b91146100f9575b600080fd5b61009561019d565b6040516100a29190610756565b60405180910390f35b6100c560048036038101906100c0919061055c565b6101c3565b6040516100d291906107d8565b60405180910390f35b6100e36101fe565b6040516100f091906107d8565b60405180910390f35b610113600480360381019061010e9190610645565b610204565b005b61011d61032a565b60405161012a9190610771565b60405180910390f35b61013b61034e565b60405161014891906107d8565b60405180910390f35b61016b600480360381019061016691906105b0565b610356565b60405161017891906107d8565b60405180910390f35b61019b600480360381019061019691906105f1565b610384565b005b600160009054906101000a900473ffffffffffffffffffffffffffffffffffffffff1681565b600360205281600052604060002081805160208101820180518482526020830160208501208183528095505050505050600091509150505481565b60025481565b81600360003373ffffffffffffffffffffffffffffffffffffffff1673ffffffffffffffffffffffffffffffffffffffff16815260200190815260200160002082604051610252919061073f565b90815260200160405180910390208190555081600482604051610275919061073f565b90815260200160405180910390208190555033600160006101000a81548173ffffffffffffffffffffffffffffffffffffffff021916908373ffffffffffffffffffffffffffffffffffffffff1602179055507e6e58a99a6411b06bef80fb813b3e76218bc28a392400c844293dbf30e773cf82600160009054906101000a900473ffffffffffffffffffffffffffffffffffffffff16834260405161031e94939291906107f3565b60405180910390a15050565b60008054906101000a900473ffffffffffffffffffffffffffffffffffffffff1681565b600047905090565b6004818051602081018201805184825260208301602085012081835280955050505050506000915090505481565b600482604051610394919061073f565b908152602001604051809103902054600281905550806000806101000a81548173ffffffffffffffffffffffffffffffffffffffff021916908373ffffffffffffffffffffffffffffffffffffffff16021790555060008054906101000a900473ffffffffffffffffffffffffffffffffffffffff1673ffffffffffffffffffffffffffffffffffffffff166108fc6002549081150290604051600060405180830381858888f19350505050158015610451573d6000803e3d6000fd5b507fc907b547edb6c6bdfb82b779fdc391a507be5c4a6bbb6bfe8fe9c2ca55eb0eee8260025460008054906101000a900473ffffffffffffffffffffffffffffffffffffffff16426040516104a9949392919061078c565b60405180910390a15050565b60006104c86104c384610870565b61083f565b9050828152602081018484840111156104e057600080fd5b6104eb84828561094b565b509392505050565b600081359050610502816109cd565b92915050565b600081359050610517816109e4565b92915050565b600082601f83011261052e57600080fd5b813561053e8482602086016104b5565b91505092915050565b600081359050610556816109fb565b92915050565b6000806040838503121561056f57600080fd5b600061057d858286016104f3565b925050602083013567ffffffffffffffff81111561059a57600080fd5b6105a68582860161051d565b9150509250929050565b6000602082840312156105c257600080fd5b600082013567ffffffffffffffff8111156105dc57600080fd5b6105e88482850161051d565b91505092915050565b6000806040838503121561060457600080fd5b600083013567ffffffffffffffff81111561061e57600080fd5b61062a8582860161051d565b925050602061063b85828601610508565b9150509250929050565b6000806040838503121561065857600080fd5b600061066685828601610547565b925050602083013567ffffffffffffffff81111561068357600080fd5b61068f8582860161051d565b9150509250929050565b6106a281610915565b82525050565b6106b1816108d9565b82525050565b6106c0816108c7565b82525050565b60006106d1826108a0565b6106db81856108ab565b93506106eb81856020860161095a565b6106f4816109bc565b840191505092915050565b600061070a826108a0565b61071481856108bc565b935061072481856020860161095a565b80840191505092915050565b6107398161090b565b82525050565b600061074b82846106ff565b915081905092915050565b600060208201905061076b60008301846106b7565b92915050565b600060208201905061078660008301846106a8565b92915050565b600060808201905081810360008301526107a681876106c6565b90506107b56020830186610730565b6107c26040830185610699565b6107cf6060830184610730565b95945050505050565b60006020820190506107ed6000830184610730565b92915050565b60006080820190506108086000830187610730565b61081560208301866106b7565b818103604083015261082781856106c6565b90506108366060830184610730565b95945050505050565b6000604051905081810181811067ffffffffffffffff821117156108665761086561098d565b5b8060405250919050565b600067ffffffffffffffff82111561088b5761088a61098d565b5b601f19601f8301169050602081019050919050565b600081519050919050565b600082825260208201905092915050565b600081905092915050565b60006108d2826108eb565b9050919050565b60006108e4826108eb565b9050919050565b600073ffffffffffffffffffffffffffffffffffffffff82169050919050565b6000819050919050565b600061092082610927565b9050919050565b600061093282610939565b9050919050565b6000610944826108eb565b9050919050565b82818337600083830152505050565b60005b8381101561097857808201518184015260208101905061095d565b83811115610987576000848401525b50505050565b7f4e487b7100000000000000000000000000000000000000000000000000000000600052604160045260246000fd5b6000601f19601f8301169050919050565b6109d6816108c7565b81146109e157600080fd5b50565b6109ed816108d9565b81146109f857600080fd5b50565b610a048161090b565b8114610a0f57600080fd5b5056fea26469706673582212208a5272c6eabe91c9d5ff98344664135ac03d5a62516aeff4bb7ef782f3273f8b64736f6c63430008000033",
  "immutableReferences": {},
  "source": "// SPDX-License-Identifier: MIT\npragma solidity >=0.4.22 <0.9.0;\n\ncontract Voucher {\n\n    address payable public reedeemer;\n    address public creator;\n    uint public value;\n\n    event VoucherCreated (\n        uint _value,\n        address _creator,\n        string _voucher,\n        uint _date\n    );\n    \n    event VoucherReedeemed(\n        string _voucher,\n        uint _value,\n        address _reedeemer,\n        uint _date\n        );\n    \n    constructor()payable{\n       \n    }\n\n    mapping(address => mapping(string => uint)) public coupons;\n    mapping(string => uint) public voucherPrice;\n\n\n\n    function createVoucher(uint _value, string memory _voucher) public{\n     \n        coupons[msg.sender][_voucher] = _value;\n        voucherPrice[_voucher] = _value;\n        creator = msg.sender;\n\n        emit VoucherCreated(_value,creator, _voucher,block.timestamp);\n    }\n    \n    function balanceOf() external view returns(uint){\n        return address(this).balance;\n    }\n\n    function reedemVoucher( string memory _voucher, address payable _reedeemer) public {\n        \n        value = voucherPrice[_voucher];\n        \n        reedeemer = _reedeemer;\n        \n        reedeemer.transfer(value);\n    \n        // msg.sender.transfer(msg.value);\n        \n        emit VoucherReedeemed(_voucher, value, reedeemer,block.timestamp);\n        \n    }\n}",
  "sourcePath": "/home/sarzy/Documents/voucher-app/contracts/Voucher.sol",
  "compiler": {
    "name": "solc",
    "version": "0.8.0+commit.c7dfd78e.Emscripten.clang"
  },
  "schemaVersion": "3.4.1",
  "updatedAt": "2021-06-06T17:41:41.428Z",
  "networkType": "ethereum",
  "devdoc": {
    "kind": "dev",
    "methods": {},
    "version": 1
  },
  "userdoc": {
    "kind": "user",
    "methods": {},
    "version": 1
  }
}