{
  "contractName": "Voucher",
  "abi": [
    {
      "inputs": [],
      "stateMutability": "payable",
      "type": "constructor",
      "payable": true
    },
    {
      "anonymous": false,
      "inputs": [
        {
          "indexed": false,
          "internalType": "uint256",
          "name": "_value",
          "type": "uint256"
        },
        {
          "indexed": false,
          "internalType": "address",
          "name": "_creator",
          "type": "address"
        },
        {
          "indexed": false,
          "internalType": "uint256",
          "name": "_voucher",
          "type": "uint256"
        },
        {
          "indexed": false,
          "internalType": "uint256",
          "name": "_date",
          "type": "uint256"
        }
      ],
      "name": "VoucherCreated",
      "type": "event"
    },
    {
      "anonymous": false,
      "inputs": [
        {
          "indexed": false,
          "internalType": "uint256",
          "name": "_voucher",
          "type": "uint256"
        },
        {
          "indexed": false,
          "internalType": "uint256",
          "name": "_value",
          "type": "uint256"
        },
        {
          "indexed": false,
          "internalType": "address",
          "name": "_reedeemer",
          "type": "address"
        },
        {
          "indexed": false,
          "internalType": "uint256",
          "name": "_date",
          "type": "uint256"
        }
      ],
      "name": "VoucherReedeemed",
      "type": "event"
    },
    {
      "inputs": [
        {
          "internalType": "address",
          "name": "",
          "type": "address"
        },
        {
          "internalType": "uint256",
          "name": "",
          "type": "uint256"
        }
      ],
      "name": "coupons",
      "outputs": [
        {
          "internalType": "uint256",
          "name": "",
          "type": "uint256"
        }
      ],
      "stateMutability": "view",
      "type": "function",
      "constant": true
    },
    {
      "inputs": [],
      "name": "creator",
      "outputs": [
        {
          "internalType": "address",
          "name": "",
          "type": "address"
        }
      ],
      "stateMutability": "view",
      "type": "function",
      "constant": true
    },
    {
      "inputs": [],
      "name": "reedeemer",
      "outputs": [
        {
          "internalType": "address payable",
          "name": "",
          "type": "address"
        }
      ],
      "stateMutability": "view",
      "type": "function",
      "constant": true
    },
    {
      "inputs": [],
      "name": "value",
      "outputs": [
        {
          "internalType": "uint256",
          "name": "",
          "type": "uint256"
        }
      ],
      "stateMutability": "view",
      "type": "function",
      "constant": true
    },
    {
      "inputs": [
        {
          "internalType": "uint256",
          "name": "",
          "type": "uint256"
        }
      ],
      "name": "voucherPrice",
      "outputs": [
        {
          "internalType": "uint256",
          "name": "",
          "type": "uint256"
        }
      ],
      "stateMutability": "view",
      "type": "function",
      "constant": true
    },
    {
      "inputs": [
        {
          "internalType": "uint256",
          "name": "_value",
          "type": "uint256"
        },
        {
          "internalType": "uint256",
          "name": "_voucher",
          "type": "uint256"
        }
      ],
      "name": "createVoucher",
      "outputs": [],
      "stateMutability": "nonpayable",
      "type": "function"
    },
    {
      "inputs": [],
      "name": "balanceOf",
      "outputs": [
        {
          "internalType": "uint256",
          "name": "",
          "type": "uint256"
        }
      ],
      "stateMutability": "view",
      "type": "function",
      "constant": true
    },
    {
      "inputs": [
        {
          "internalType": "uint256",
          "name": "_voucher",
          "type": "uint256"
        }
      ],
      "name": "reedemVoucher",
      "outputs": [],
      "stateMutability": "nonpayable",
      "type": "function"
    }
  ],
  "bytecode": "0x6080604052610732806100136000396000f3fe608060405234801561001057600080fd5b50600436106100885760003560e01c80633fa4f2451161005b5780633fa4f245146101275780635d83a970146101455780636d8508ff14610163578063722713f71461017f57610088565b806302d05d3f1461008d578063124992b0146100ab578063243c95cc146100db5780632be361e7146100f7575b600080fd5b61009561019d565b6040516100a2919061056f565b60405180910390f35b6100c560048036038101906100c09190610492565b6101c3565b6040516100d291906105a5565b60405180910390f35b6100f560048036038101906100f091906104f7565b6101e8565b005b610111600480360381019061010c91906104ce565b6102f9565b60405161011e91906105a5565b60405180910390f35b61012f610311565b60405161013c91906105a5565b60405180910390f35b61014d610317565b60405161015a919061058a565b60405180910390f35b61017d600480360381019061017891906104ce565b61033b565b005b610187610460565b60405161019491906105a5565b60405180910390f35b600160009054906101000a900473ffffffffffffffffffffffffffffffffffffffff1681565b6003602052816000526040600020602052806000526040600020600091509150505481565b81600360003373ffffffffffffffffffffffffffffffffffffffff1673ffffffffffffffffffffffffffffffffffffffff16815260200190815260200160002060008381526020019081526020016000208190555081600460008381526020019081526020016000208190555033600160006101000a81548173ffffffffffffffffffffffffffffffffffffffff021916908373ffffffffffffffffffffffffffffffffffffffff1602179055507f114d91b6b8dd24af34ced362fcc08101ece20377b1792f7a1020f02f596b6db582600160009054906101000a900473ffffffffffffffffffffffffffffffffffffffff1683426040516102ed94939291906105c0565b60405180910390a15050565b60046020528060005260406000206000915090505481565b60025481565b60008054906101000a900473ffffffffffffffffffffffffffffffffffffffff1681565b6004600082815260200190815260200160002054600281905550336000806101000a81548173ffffffffffffffffffffffffffffffffffffffff021916908373ffffffffffffffffffffffffffffffffffffffff16021790555060008054906101000a900473ffffffffffffffffffffffffffffffffffffffff1673ffffffffffffffffffffffffffffffffffffffff166108fc6002549081150290604051600060405180830381858888f193505050501580156103fd573d6000803e3d6000fd5b507fd6006919aa213a72c4dc52fec1eafb2aff2cd7375bf335fac8455f5f9c677ba78160025460008054906101000a900473ffffffffffffffffffffffffffffffffffffffff16426040516104559493929190610605565b60405180910390a150565b600047905090565b600081359050610477816106ce565b92915050565b60008135905061048c816106e5565b92915050565b600080604083850312156104a557600080fd5b60006104b385828601610468565b92505060206104c48582860161047d565b9150509250929050565b6000602082840312156104e057600080fd5b60006104ee8482850161047d565b91505092915050565b6000806040838503121561050a57600080fd5b60006105188582860161047d565b92505060206105298582860161047d565b9150509250929050565b61053c81610698565b82525050565b61054b8161065c565b82525050565b61055a8161064a565b82525050565b6105698161068e565b82525050565b60006020820190506105846000830184610551565b92915050565b600060208201905061059f6000830184610542565b92915050565b60006020820190506105ba6000830184610560565b92915050565b60006080820190506105d56000830187610560565b6105e26020830186610551565b6105ef6040830185610560565b6105fc6060830184610560565b95945050505050565b600060808201905061061a6000830187610560565b6106276020830186610560565b6106346040830185610533565b6106416060830184610560565b95945050505050565b60006106558261066e565b9050919050565b60006106678261066e565b9050919050565b600073ffffffffffffffffffffffffffffffffffffffff82169050919050565b6000819050919050565b60006106a3826106aa565b9050919050565b60006106b5826106bc565b9050919050565b60006106c78261066e565b9050919050565b6106d78161064a565b81146106e257600080fd5b50565b6106ee8161068e565b81146106f957600080fd5b5056fea2646970667358221220166e6551304c0c5463f3b0514ade961df045195b48d12ad989fa856d9fd2698664736f6c63430008000033",
  "immutableReferences": {},
  "source": "// SPDX-License-Identifier: MIT\npragma solidity >=0.4.22 <0.9.0;\n\ncontract Voucher {\n\n    address payable public reedeemer;\n    address public creator;\n    uint public value;\n\n    event VoucherCreated (\n        uint _value,\n        address _creator,\n        uint _voucher,\n        uint _date\n    );\n    \n    event VoucherReedeemed(\n        uint _voucher,\n        uint _value,\n        address _reedeemer,\n        uint _date\n        );\n    \n   constructor()payable{\n       \n   }\n\n    mapping(address => mapping(uint => uint)) public coupons;\n    mapping(uint => uint) public voucherPrice;\n\n\n\n    function createVoucher(uint _value, uint _voucher) public{\n     \n        coupons[msg.sender][_voucher] = _value;\n        voucherPrice[_voucher] = _value;\n        creator = msg.sender;\n\n        emit VoucherCreated(_value,creator, _voucher,block.timestamp);\n    }\n    \n    function balanceOf() external view returns(uint){\n        return address(this).balance;\n    }\n\n    function reedemVoucher( uint _voucher) public {\n        \n        value = voucherPrice[_voucher];\n        \n        reedeemer = payable(msg.sender);\n        \n        reedeemer.transfer(value);\n    \n        // msg.sender.transfer(msg.value);\n        \n        emit VoucherReedeemed(_voucher, value, reedeemer,block.timestamp);\n        \n    }\n}",
  "sourcePath": "/home/sarzy/Documents/voucher-app/contracts/Voucher.sol",
  "compiler": {
    "name": "solc",
    "version": "0.8.0+commit.c7dfd78e.Emscripten.clang"
  },
  "schemaVersion": "3.4.1",
  "updatedAt": "2021-06-05T11:52:32.920Z",
  "networkType": "ethereum",
  "devdoc": {
    "kind": "dev",
    "methods": {},
    "version": 1
  },
  "userdoc": {
    "kind": "user",
    "methods": {},
    "version": 1
  }
}