{
  "contractName": "Voucher",
  "abi": [
    {
      "anonymous": false,
      "inputs": [
        {
          "indexed": false,
          "internalType": "uint256",
          "name": "_value",
          "type": "uint256"
        },
        {
          "indexed": false,
          "internalType": "address",
          "name": "_creator",
          "type": "address"
        },
        {
          "indexed": false,
          "internalType": "uint256",
          "name": "_voucher",
          "type": "uint256"
        },
        {
          "indexed": false,
          "internalType": "uint256",
          "name": "_date",
          "type": "uint256"
        }
      ],
      "name": "VoucherCreated",
      "type": "event"
    },
    {
      "anonymous": false,
      "inputs": [
        {
          "indexed": false,
          "internalType": "uint256",
          "name": "_voucher",
          "type": "uint256"
        },
        {
          "indexed": false,
          "internalType": "uint256",
          "name": "_value",
          "type": "uint256"
        },
        {
          "indexed": false,
          "internalType": "address",
          "name": "_reedeemer",
          "type": "address"
        },
        {
          "indexed": false,
          "internalType": "uint256",
          "name": "_date",
          "type": "uint256"
        }
      ],
      "name": "VoucherReedeemed",
      "type": "event"
    },
    {
      "inputs": [
        {
          "internalType": "address",
          "name": "",
          "type": "address"
        },
        {
          "internalType": "uint256",
          "name": "",
          "type": "uint256"
        }
      ],
      "name": "coupons",
      "outputs": [
        {
          "internalType": "uint256",
          "name": "",
          "type": "uint256"
        }
      ],
      "stateMutability": "view",
      "type": "function"
    },
    {
      "inputs": [],
      "name": "creator",
      "outputs": [
        {
          "internalType": "address",
          "name": "",
          "type": "address"
        }
      ],
      "stateMutability": "view",
      "type": "function"
    },
    {
      "inputs": [],
      "name": "reedeemer",
      "outputs": [
        {
          "internalType": "address payable",
          "name": "",
          "type": "address"
        }
      ],
      "stateMutability": "view",
      "type": "function"
    },
    {
      "inputs": [],
      "name": "value",
      "outputs": [
        {
          "internalType": "uint256",
          "name": "",
          "type": "uint256"
        }
      ],
      "stateMutability": "view",
      "type": "function"
    },
    {
      "inputs": [
        {
          "internalType": "uint256",
          "name": "",
          "type": "uint256"
        }
      ],
      "name": "voucherPrice",
      "outputs": [
        {
          "internalType": "uint256",
          "name": "",
          "type": "uint256"
        }
      ],
      "stateMutability": "view",
      "type": "function"
    },
    {
      "inputs": [],
      "name": "sendEther",
      "outputs": [],
      "stateMutability": "payable",
      "type": "function"
    },
    {
      "inputs": [
        {
          "internalType": "uint256",
          "name": "_value",
          "type": "uint256"
        },
        {
          "internalType": "uint256",
          "name": "_voucher",
          "type": "uint256"
        }
      ],
      "name": "createVoucher",
      "outputs": [],
      "stateMutability": "nonpayable",
      "type": "function"
    },
    {
      "inputs": [],
      "name": "balanceOf",
      "outputs": [
        {
          "internalType": "uint256",
          "name": "",
          "type": "uint256"
        }
      ],
      "stateMutability": "view",
      "type": "function"
    },
    {
      "inputs": [
        {
          "internalType": "uint256",
          "name": "_voucher",
          "type": "uint256"
        }
      ],
      "name": "reedemVoucher",
      "outputs": [],
      "stateMutability": "nonpayable",
      "type": "function"
    }
  ],
  "bytecode": "0x608060405234801561001057600080fd5b506107a4806100206000396000f3fe6080604052600436106100865760003560e01c80632be361e7116100595780632be361e7146101265780633fa4f245146101635780635d83a9701461018e5780636d8508ff146101b9578063722713f7146101e257610086565b806302d05d3f1461008b5780630e29df22146100b6578063124992b0146100c0578063243c95cc146100fd575b600080fd5b34801561009757600080fd5b506100a061020d565b6040516100ad91906105e1565b60405180910390f35b6100be610233565b005b3480156100cc57600080fd5b506100e760048036038101906100e29190610504565b610235565b6040516100f49190610617565b60405180910390f35b34801561010957600080fd5b50610124600480360381019061011f9190610569565b61025a565b005b34801561013257600080fd5b5061014d60048036038101906101489190610540565b61036b565b60405161015a9190610617565b60405180910390f35b34801561016f57600080fd5b50610178610383565b6040516101859190610617565b60405180910390f35b34801561019a57600080fd5b506101a3610389565b6040516101b091906105fc565b60405180910390f35b3480156101c557600080fd5b506101e060048036038101906101db9190610540565b6103ad565b005b3480156101ee57600080fd5b506101f76104d2565b6040516102049190610617565b60405180910390f35b600160009054906101000a900473ffffffffffffffffffffffffffffffffffffffff1681565b565b6003602052816000526040600020602052806000526040600020600091509150505481565b81600360003373ffffffffffffffffffffffffffffffffffffffff1673ffffffffffffffffffffffffffffffffffffffff16815260200190815260200160002060008381526020019081526020016000208190555081600460008381526020019081526020016000208190555033600160006101000a81548173ffffffffffffffffffffffffffffffffffffffff021916908373ffffffffffffffffffffffffffffffffffffffff1602179055507f114d91b6b8dd24af34ced362fcc08101ece20377b1792f7a1020f02f596b6db582600160009054906101000a900473ffffffffffffffffffffffffffffffffffffffff16834260405161035f9493929190610632565b60405180910390a15050565b60046020528060005260406000206000915090505481565b60025481565b60008054906101000a900473ffffffffffffffffffffffffffffffffffffffff1681565b6004600082815260200190815260200160002054600281905550336000806101000a81548173ffffffffffffffffffffffffffffffffffffffff021916908373ffffffffffffffffffffffffffffffffffffffff16021790555060008054906101000a900473ffffffffffffffffffffffffffffffffffffffff1673ffffffffffffffffffffffffffffffffffffffff166108fc6002549081150290604051600060405180830381858888f1935050505015801561046f573d6000803e3d6000fd5b507fd6006919aa213a72c4dc52fec1eafb2aff2cd7375bf335fac8455f5f9c677ba78160025460008054906101000a900473ffffffffffffffffffffffffffffffffffffffff16426040516104c79493929190610677565b60405180910390a150565b600047905090565b6000813590506104e981610740565b92915050565b6000813590506104fe81610757565b92915050565b6000806040838503121561051757600080fd5b6000610525858286016104da565b9250506020610536858286016104ef565b9150509250929050565b60006020828403121561055257600080fd5b6000610560848285016104ef565b91505092915050565b6000806040838503121561057c57600080fd5b600061058a858286016104ef565b925050602061059b858286016104ef565b9150509250929050565b6105ae8161070a565b82525050565b6105bd816106ce565b82525050565b6105cc816106bc565b82525050565b6105db81610700565b82525050565b60006020820190506105f660008301846105c3565b92915050565b600060208201905061061160008301846105b4565b92915050565b600060208201905061062c60008301846105d2565b92915050565b600060808201905061064760008301876105d2565b61065460208301866105c3565b61066160408301856105d2565b61066e60608301846105d2565b95945050505050565b600060808201905061068c60008301876105d2565b61069960208301866105d2565b6106a660408301856105a5565b6106b360608301846105d2565b95945050505050565b60006106c7826106e0565b9050919050565b60006106d9826106e0565b9050919050565b600073ffffffffffffffffffffffffffffffffffffffff82169050919050565b6000819050919050565b60006107158261071c565b9050919050565b60006107278261072e565b9050919050565b6000610739826106e0565b9050919050565b610749816106bc565b811461075457600080fd5b50565b61076081610700565b811461076b57600080fd5b5056fea26469706673582212207ebad778ca7082e5604734170db723f3effa17447cdc702b95bd8378dd9e6aa364736f6c63430008000033",
  "immutableReferences": {},
  "source": "// SPDX-License-Identifier: MIT\npragma solidity >=0.4.22 <0.9.0;\n\ncontract Voucher {\n\n    // address public admin;\n    address payable public reedeemer;\n    address public creator;\n    uint public value;\n\n    event VoucherCreated (\n        uint _value,\n        address _creator,\n        uint _voucher,\n        uint _date\n    );\n    \n    event VoucherReedeemed(\n        uint _voucher,\n        uint _value,\n        address _reedeemer,\n        uint _date\n        );\n    \n    function sendEther() external payable {\n        \n    }\n\n    mapping(address => mapping(uint => uint)) public coupons;\n    mapping(uint => uint) public voucherPrice;\n\n    // constructor(address _admin){\n    //     admin = _admin;\n    //     // reedeemer = _reedeemer;\n        \n    // }\n\n\n    function createVoucher(uint _value, uint _voucher) public{\n     \n        coupons[msg.sender][_voucher] = _value;\n        voucherPrice[_voucher] = _value;\n        creator = msg.sender;\n\n        emit VoucherCreated(_value,creator, _voucher,block.timestamp);\n    }\n    \n    function balanceOf() external view returns(uint){\n        return address(this).balance;\n    }\n\n    function reedemVoucher( uint _voucher) public {\n        // require(_reedeemer == admin, 'creator cannot redeem coupon');\n        // require(_reedeemer == reedeemer, 'cannot reedem');\n        // _value = voucherPrice[_voucher];\n        \n        // _reedeemer = reedeemer;\n        \n        // require(voucherPrice[_voucher] == true, 'value does not match or voucher not found');\n        \n        value = voucherPrice[_voucher];\n        \n        reedeemer = payable(msg.sender);\n        \n        reedeemer.transfer(value);\n    \n        // msg.sender.transfer(msg.value);\n        \n        emit VoucherReedeemed(_voucher, value, reedeemer,block.timestamp);\n        \n    }\n}",
  "sourcePath": "/home/sarzy/Documents/voucher-app/contracts/Voucher.sol",
  "compiler": {
    "name": "solc",
    "version": "0.8.0+commit.c7dfd78e.Emscripten.clang"
  },
  "schemaVersion": "3.4.1",
  "updatedAt": "2021-06-02T21:03:48.114Z",
  "devdoc": {
    "kind": "dev",
    "methods": {},
    "version": 1
  },
  "userdoc": {
    "kind": "user",
    "methods": {},
    "version": 1
  }
}